:020000040800F2
:1000000098080020AD010008B93D0008DD36000861
:10001000B53D000891100008A13E00080000000056
:10002000000000000000000000000000C53D0008C6
:100030009510000800000000BD3D0008C93D000803
:10004000C7010008C7010008C7010008C701000870
:10005000C7010008C13D0008C7010008C70100082A
:10006000C7010008C7010008C7010008C701000850
:10007000C7010008C7010008C7010008C701000840
:10008000C7010008C7010008C7010008C701000830
:10009000C7010008C7010008C7010008C701000820
:1000A000C7010008C7010008C7010008C701000810
:1000B000C7010008C7010008C7010008ED360008A5
:1000C000E1360008C7010008C7010008C7010008A1
:1000D000C7010008C7010008953E0008C7010008D5
:1000E000C7010008C7010008C701000800F002F8B6
:1000F00000F04DF80AA090E8000C82448344AAF175
:100100000107DA4501D100F042F8AFF2090EBAE872
:100110000F0013F0010F18BFFB1A43F0010318473B
:10012000E054000000550000103A24BF78C878C1A0
:10013000FAD8520724BF30C830C144BF04680C60ED
:10014000704700000023002400250026103A28BF35
:1001500078C1FBD8520728BF30C148BF0B60704739
:10016000642900F08B80002070471FB500F0C6FCAA
:1001700004000020002104F0ADFE401C606000205F
:10018000002104F091FEE0601FBD10B510BD00F02D
:10019000C1F91146FFF7E9FF03F094FF00F064FC9A
:1001A00003B4FFF7F2FF03BC00F05CFF094880478F
:1001B00009480047FEE7FEE7FEE7FEE7FEE7FEE749
:1001C000FEE7FEE7FEE7FEE704480549054A064B61
:1001D00070470000CD3D0008ED00000898020020A7
:1001E0009808002098040020980400200FB41CB543
:1001F000074B06AA7B4469460090059800F0E7F893
:100200000020694600F0F6F81CBC5DF814FB000005
:10021000FD0100002DE9F0410E4604460020206259
:100220002046E168884730B3252805D0D4E901216C
:100230009047206A401CF2E7E16820460027884783
:10024000050018D0A5F14100192802D820354FF437
:1002500000673246294620462760FFF781FF40B1FC
:10026000012804D0F61D26F007060836D8E7361D0B
:10027000D6E72846DAE7206ABDE8F0812DE9F041AB
:100280000646002410687529314616A510D0AFF334
:100290000080002802DA404213A507E031688A078F
:1002A00001D512A502E0490704D511A5012401E0FA
:1002B000AFF3008000210A2206F1240709E0B0FB19
:1002C000F2FCB0FBF2F302FB1C003030785418460D
:1002D000491C0028F3D123462A463046BDE8F041A8
:1002E00000F016B8000000002D0000002B000000F8
:1002F0002000000070477047704710B500F0D8F834
:10030000006810BD10B5044600F0D2F8046010BDBE
:100310002DE9F0470D4699469246044600F124081F
:100320000168880604D5E06921F01001216000E031
:100330000120A84201DD471B00E00027A1697A19CE
:1003400002EB0900081AA0612078C00602D42046FA
:10035000AFF30080002608E0D4E901211AF8060076
:100360009047206A401C761C20624E45F4DB2078C2
:10037000C0060AD52046AFF3008006E0D4E901218B
:1003800030209047206A401C2062381EA7F10107E8
:10039000F4DC07E0D4E9012118F805009047206A51
:1003A000401C2062281EA5F10105F3DC2046AFF3B6
:1003B00000802078000602D50220BDE8F0870120E9
:1003C000FBE7000001694A1C02610878704700B52C
:1003D0008FB0CDE901310021059105497944CDE97E
:1003E000031011466846FFF715FF0FB000BD00006F
:1003F000E5FFFFFF0A6802F8010B0A607047000082
:100400000FB40B0010B54FF000048AB00FA9009193
:100410000E99CC60234C7C44234A7A44CDE90642B1
:1004200000D004236FF00042CDE901321F4A7A4424
:100430006B4608920246002005F064F80AB010BC32
:100440005DF814FBF0B507464FF0FF301E46154629
:100450000C463B4685B06A460091CDE90101314624
:100460000020049004A8FFF7CBFF0499034660180E
:1004700025B109B1024600E022462A6000290ED0CB
:10048000002B02DD0099814209D03B466A46314685
:10049000001B0094CDE9010404A8FFF7B1FF05B0EB
:1004A000F0BD0000B1000000CB000000870000009C
:1004B000004870471000002010B5044600F050F8C6
:1004C0000068005D00F0010010BD426842B10168A3
:1004D00011F8013B23B1521EC0E9001218467047C3
:1004E0000121C160881E704742685AB1C368016823
:1004F00043B983688B4205D0491E521CC0E90012E3
:10050000002070474FF0FF307047000000487047F0
:10051000100000207546FFF7F9FFAE46050069465A
:10052000534620F00700854618B020B5FFF74CFE73
:10053000BDE820404FF000064FF000074FF00008E4
:100540004FF0000BAC46ACE8C009ACE8C009ACE821
:10055000C009ACE8C00921F007018D4670470000D2
:1005600010B500F0CBFA001D10BD00BF69490000B6
:100570002DE9FF4F06468BB00878FF2806D0491CAE
:100580002D2805D000244FF0000908E000200CE0E1
:100590000124F8E709EB8903491C00EB43090878BB
:1005A000FF28F7D114B1C9F1000081461078002569
:1005B0002C46AA4629462D2801D02B2804D1521CAE
:1005C0002D2813D0002082468B461078FF280FD0AC
:1005D0004FF0000C0A21521CA5FB017804FB01819D
:1005E00005FB0C11C5194BEB0104EEE70120EAE70E
:1005F000002108464FF00000BAF1000F02D000EBD6
:1006000080004008C0F38157012F01DD4FF0FF3714
:100610000E9955EA040009EB01080BD04FF00209CE
:1006200018F5FA7F16DA4FEACA70002F706008DDFD
:10063000012007E04FEACA70C6E900B00FB0BDE87C
:10064000F08F00203060FFF733FFC0F800901821D2
:10065000084616E0B8F5FA7F18DD002F02DAF748F1
:10066000784401E0F6487844D0E90010C6E900106B
:1006700040EACA707060FFF71BFFC0F800901421B9
:1006800008460FB0BDE8F04F04F0D9BE002108467F
:100690004FF00000B8F10001099002DAC7F1000242
:1006A00000E03A4601DAC8F1000106A800F03EFA7F
:1006B00006AB93E8070003AB83E8070044F23E0073
:1006C0005BEA04010090584604D144F21E012C4616
:1006D0005D460091210C0904014306D100992404D0
:1006E00044EA15442D041039009104F07F41014380
:1006F00006D10099240244EA15642D0208390091BC
:1007000004F07041014306D10099240144EA1574B4
:100710002D01091F009104F04041014306D10099C9
:10072000A40044EA9574AD00891E009104F00041D4
:10073000084304D100986D196441401E00904FF0A9
:1007400001033A466846B8F1000FCDE9014503A917
:1007500002DD04F06EF901E004F041F9BAF1000F96
:1007600004460D4601D084F00044002108464FF0B5
:100770000000099940F2FF77484010F00C0F07D1B4
:1007800024F00040284303D0C4F30A50B84212D1E9
:10079000FFF78EFEC0F80090C4F30A50B8420AD1A9
:1007A000A8487844D0E90010C6E9001004F00041E0
:1007B0000843706042E7C6E900543FE72DE9FF4F68
:1007C0001F464FF0000A4FF0FF38454691B0D7E979
:1007D0000146CDF83CA000F091F9C0680168405C8A
:1007E0001090B96912986D1C8847396A814688470C
:1007F0000028F6D1B9F1FF3F0AD0002E24F4D064CE
:1008000011DDB9F12B0F08D0B9F12D0F0BD102E09A
:10081000404615B013E744F48064B96912986D1C22
:100820008847761E8146600504A901D52D2000E089
:100830002B20002E01F1010B0DF130088DF8100076
:100840003FDDB9F1690F08D0B9F1490F05D0B9F111
:100850006E0F02D0B9F14E0F1CD13B4601A8009596
:1008600080E85002DDE912126FF0020004F04EFE43
:10087000C11CCED10EE0B96912986D1C8847814623
:100880001398761E44F4007405600F98401C002EE7
:100890000F9016DDB9F1300FEDD0B9F1780F02D01D
:1008A000B9F1580F0DD10F9801280AD13B46CDE977
:1008B0000054DDE91212001F029604F025FEC11C4F
:1008C000A7D1109989453ED144F0800406E01399E0
:1008D000681CAAF1010A44F400740860B9696D1C2F
:1008E0001298761E884730288146F0D02BE0109968
:1008F000894505D1200603D4761E44F0800418E013
:10090000484604F04EFA08B3761E0DF123029345D3
:10091000A9F1300044F4007406D20BF8010B200654
:1009200007D5AAF1010003E0200602D40AF1010074
:100930008246A00502D51399681C0860B96912980F
:100940006D1C88478146002ED1DC53E0002E51DD1E
:10095000B9F1650F02D0B9F1450F4BD1A00549D5CA
:10096000B9696D1C1298761E24F440748847002ED5
:1009700081460CDD2B2804D0B9F12D0F07D144F4AA
:100980008074B96912986D1C8847761E8146E0050F
:1009900001D52D2100E02B2108F8011BCDF80080A6
:1009A00021E0761E0DF13901884544F400740CD223
:1009B000A9F1300010F0FF0088F8000002D1009982
:1009C000884509D908F1010806E0E00501D51E486F
:1009D00001E042F20F708246B96912986D1C884797
:1009E000814613980560002E04DD484604F0D9F9CD
:1009F0000028D6D1F96912988847FF2053468BF812
:100A0000000088F8000000200A900B9004AA0CA9AE
:100A10000AA8FFF7ADFDA00502D46FF00100F8E6CB
:100A200014F0240F12D0E0071CD13868DDE90A1257
:100A3000031D3B600068C0E9001213E0C44F0000D2
:100A4000B64F00007A4E0000F1D8FFFF0AA96846B1
:100A500004F036F9E00705D13868009A011D3960C5
:100A6000006802602846D4E610B50446AFF3008063
:100A70002046BDE81040FFF793BB00004FF0013C5B
:100A800050F8042B51F8043B9A4221D1A2EB0C03FD
:100A9000934313EACC1317D150F8042B51F8043BBD
:100AA0009A4215D1A2EB0C03934313EACC130BD15A
:100AB00050F8042B51F8043B9A4209D1A2EB0C03E5
:100AC000934313EACC13DBD04FF00000704700BF14
:100AD000D01A01BAB1FA81F101F0180122FA01F03D
:100AE000CB40DBB2C0B2C01AC1F120012CFA01F335
:100AF000D11A914311EAC311E6D1704700487047FB
:100B000030000020B2F120030AD5C2F1200301FA1F
:100B100002F120FA03F341EA030100FA02F0704700
:100B200000FA03F14FF00000704700002DE9F04794
:100B3000814616468AB0354878440DC88DE80D00C8
:100B400032487844801C03AC0DC884E80D0041F69F
:100B50009B300844372190FBF1F290FBF1F5A5F1B1
:100B6000800501FB12041B3C02D56442012000E019
:100B70000020DFF898A080460027FA44AAF1BE0AB8
:100B80000EE0E0070AD03246684607EB4701012332
:100B90000AEB810103F038FF8DE8070064107F1C29
:100BA000002CEED1194F7F44AE3F19E0E80715D075
:100BB00007EB04100DF1180A90E80E008AE80E0009
:100BC000C068F04201D1981908903246012306A965
:100BD00003A803F019FF03AB83E807006D10641C42
:100BE000002DE3D14FF0010332466946B8F1000F02
:100BF00003A802D003F0DEFE01E003F005FFC9E91F
:100C00000001C9F808200AB0BDE8F087804A00005A
:100C10002DE9FF4F1F464FF03C0987B04FF00042CF
:100C2000DDE9141001F10108DDF858A002EA405096
:100C30000390002005908346054604460490B96958
:100C4000461E08988847AAF1010A0290BAF1000FDF
:100C50003BDD02982E2815D0102100F009FA00285B
:100C60002EDB4FF0010B0599014317D0B9F1000FAE
:100C70000BDB4A46C117FFF745FF05430C43A9F1BB
:100C8000040905E0012004900BE008B145F00105DE
:100C900001200590049820B9361D02E0049800B1A7
:100CA000361FB969089808F101088847BBF1000FA1
:100CB000AAF1010A0290C9D00999C1F80080C5E7DC
:100CC0000298702808D0502806D0F96908988847FB
:100CD000BBF1000F14D04FE0002002900120BBF1C7
:100CE000000F049009D0B969089808F101088847F5
:100CF000AAF10109B9F1000F07DCF96908988847E2
:100D00006FF001000BB0BDE8F08F2B2804D02D2828
:100D10000CD14FF0FF300490B969089808F1010830
:100D20008847A9F10109B9F1000FE6DD411CE4D0C3
:100D30000A2100F09DF90028DFDB029908F1010883
:100D400001EB810100EB41000290B96908988847E6
:100D50000A2100F08DF9099AA9F10109B9F1000FF2
:100D6000C2F8008001DD0028E7DAF96908988847B1
:100D70000499029800FB016655EA040004D004F0CF
:100D80004041090002D006E0039898E0A40044EA3C
:100D90009574AD00B61E04F00041080002D16D1933
:100DA0006441761E159810F0240F03D04FF00B0904
:100DB0005C4803E04FF028096FF07D0082465645FD
:100DC00007DAAAEB06018944B9F1410F01DD4FF0C2
:100DD000410901200021A9F10102FFF793FE02461B
:100DE00028400B462140084301D0012100E00021AA
:100DF000501E029143F1FF3128402140084301D0A9
:100E0000012000E000200299834651EA0B014FD0F7
:100E1000002108464FF00000039900F4400039B16A
:100E200000EB80004FF4400100EBD07001EA60005D
:100E30008015012802DD4FF0FF3000E013D0401C88
:100E400036D0029860B3BBF1000F0CD14A460120A6
:100E50000021FFF757FE28402140084301D0012020
:100E600000E00020E0B101204A460021FFF74AFEE1
:100E7000034640190A4661412D1A8C4111D3B9F13C
:100E8000400F09DD159810F0240F02D0AAF13406A6
:100E900003E0AAF1170600E0761C00254FF000449D
:100EA00006E05B1E42F1FF3220EA030521EA02045C
:100EB000CAF10100B04206DA1B49039808430190C9
:100EC000002000900EE0039AC4F3D321E80A0A43FD
:100ED000164940EA44500A433146CDE900026846CB
:100EE00003F054FF159810F0240F0BD01598C0078D
:100EF00015D13868DDE90012031D3B600068C0E9C8
:100F000000120CE002A8694603F0DAFE1598C0074B
:100F100005D13868029A011D3960006802604046B8
:100F2000F0E6000002FCFFFF0000F07F0000F03F51
:100F30002DE9FF4F92461D4685B04FF00041DDE997
:100F4000124BDDE914727F1E01EA4B50414940F01B
:100F5000FF4940EA0108002122F0200049280491BD
:100F600002D04E2828D04CE03BA0012607C88DE8CF
:100F70000700A9690698641C88477F1E014606D4AD
:100F80001DF8060018B121F0200181420BD0E9695B
:100F900006988847032E34D0082E32D06FF0010017
:100FA00009B0BDE8F08F761C032E01D0082EE0D1E9
:100FB000601CCAF80000DCE7A9690698641C884731
:100FC0007F1E2AD420F02000412826D1A969069846
:100FD000641C88477F1E20D420F020004E281CD19E
:100FE000A9690698641C88477F1E48F4002849F4C4
:100FF0008009CAF8004001D4282806D0E96906987B
:1010000088475FEACB7012D022E0A9690698641C79
:1010100088477F1E01D4002803DAE96906988847CB
:10102000BCE72928F1D1641CCAF80040E9E71BF0AD
:10103000240F07D028680499031D2B600068C0E9BD
:10104000001805E02868021D2A600068C0F80090BA
:101050002046A5E70000F07F494E46494E495459C5
:101060000000000001491820ABBEFEE72600020088
:101070003A2800D2303820F02002412A01D3A2F1D0
:101080003700884201D34FF0FF30704770470000AF
:10109000FEE7000070470000014690F8210002289A
:1010A00016D10868D1E90FC3026822F00E0202606F
:1010B000026822F001020260012000FA03F2CCF87B
:1010C000042081F821000020002281F820207047B0
:1010D000042088630120002281F82020704700004E
:1010E00080B590F82110022924D10268116821F0FE
:1010F0000E0111602F211368C4F202018A4240F2EE
:101100000401C4F2020123F00103136016DD302351
:10111000C4F202039A421DD04423C4F202039A424D
:101120001CD05823C4F202039A421DD14FF48033DD
:1011300022E000BF04218163012080BD0823C4F2A6
:1011400002039A420ED01C23C4F202039A420BD12E
:10115000102311E04FF480730EE000BF4FF4805372
:101160000AE000BF012307E001F1680C4FF0807333
:10117000624508BF4FF480130B60416B4FF48072DF
:10118000028401B18847002080BD000090F8210052
:1011900070470000B0B5044600F026F9054640F25D
:1011A0000000C2F200000078611C18BF044400BFB8
:1011B00000F01AF9401BA042FAD3B0BD2DE9F04F60
:1011C00082B041F20042C4F201020E680423904250
:1011D00008BF0323002E009300F0F68040F20C4E6F
:1011E0004FF6FF7CC4F2010E00220124C1F2100C64
:1011F0004FF0000A4FF0000943E000BF012502F064
:101200000C040F27A7402BEA070705FA04F43C4318
:1012100043F82640D1F804B040F20045C4F201057D
:101220005FEACB332B6854BF23EA080343EA080381
:101230002B606B685FEA8B3454BF23EA080343EAF0
:1012400008036B605FEACB24AB6854BF23EA080352
:1012500043EA08035FEA8B24AB60DEF800304FF00E
:10126000010454BF23EA080343EA0803CEF8003020
:101270000E680AF1010A36FA0AF302F1040200F0DC
:10128000A38004FA0AF816EA080FF1D04B68634508
:1012900012DC122B56D8DFE803F0350B45495555C3
:1012A00055555555555555555555554D510000BF3A
:1012B000D1F80C9046E000BF4FF6FF77C1F221074E
:1012C000BB420FDC0027C1F21107BB421AD0002736
:1012D000C1F21207BB4215D00027C1F22107BB4261
:1012E00010D02FE00027C1F22207BB420AD000270E
:1012F000C1F23107BB4205D00027C1F23207BB4221
:1013000020D100BF8B684BB1012B14BFC0F81480F3
:10131000C0F810804FF0080914E000BF4FF0040936
:1013200010E000BFCB6803F108090BE04FF00009A3
:1013300008E000BFCB6803F1040903E0CB6803F1C8
:101340000C0900BF13460546BAF1080F24BF203B25
:1013500004352E680F279F40BE4309FA03F3334339
:101360002B60CB79DB067FF583AF41F21804C4F222
:10137000020423684FEA9A0643F0010323602368BE
:1013800040F6000403F001030193019B40F2004387
:10139000C4F20103A3F57E7353F826B0C4F201042E
:1013A000A0420FD040F60044C4F20104A0423FF432
:1013B00025AF41F20004C4F20104009DA04208BF21
:1013C00002251CE700251AE702B0BDE8F08F0000F7
:1013D0008068084018BF012070470000002A08BF3D
:1013E000090401617047000040F29020C2F2000041
:1013F000006870477047000070470000F0B581B08A
:101400000446006800254769426894F83E1002F4DB
:101410008076FA0508D53EB16FF4807242610268A9
:10142000012542F400420260BA0505D5002E1EBF18
:1014300002356FF4007242617A0516D5AEB1628D45
:1014400094F83D30D4F830C0202908BF002A23D0BA
:101450006FF48062402905F10405426101D0102932
:1014600003D1016841F400710160380506D52EB141
:10147000206808356FF40061416100E055B1206CCF
:1014800040EA05012046216401B0BDE8F04002F0C9
:10149000C5B900BF01B0F0BD03F0F701212909D0A3
:1014A000282B08BFBCF1210F04D06FF4806141618B
:1014B0000435DAE794F83D10E26AB2F1080318BF88
:1014C0000123203A18BF0122134208BF28291DD04A
:1014D000212935D10021CFF6FF71E162212121635D
:1014E000202184F83D10002184F83E10416821F449
:1014F000E06141606FF480614161016821F48061C5
:101500000160204600F0A4FEAFE700BF0021CFF647
:10151000FF71E162416821F4E06141606FF4806134
:101520004161016821F48061016000202021206375
:1015300084F83D1084F83E00204600F0F3FB94E769
:101540006FF48061416190E7F0B581B007680446AF
:101550007868E26A94F83E3094F83DE0402B01D080
:10156000102B27D1BE697D69E90751D1B2F12A4F0D
:1015700000F0C082B2F52A0F00F0BC8200F40072C5
:101580004FF0010C29078CEA522C45D5002A43D094
:10159000606B616CC9B2396118B1806A002840F093
:1015A0002281A06B002800F0A582806A002840F00C
:1015B0001A819FE2216C00F4007300290CBFBE6900
:1015C00000267D69A90753D5002B51D0206C002837
:1015D00018BFBE6994F83D0000F02800282840F0AC
:1015E00093807868002320F480607860012020EAEE
:1015F000960130064FF0180058BF0C20225A2046A2
:1016000084F83C3001B0BDE8F040FFF7F5BE00BF04
:10161000810557D44FF0010CA90759D5BCF1000F33
:1016200056D194F83E30E06A226B94F83D1022299E
:1016300040F0E080216D002908BF402B00F0DA80E7
:10164000216D002940F034812169B1F5404F40F00F
:101650002F810020009078690090B8690090009870
:10166000386840F480703860206D013095E200BF2A
:10167000E90655D5002B53D094F83D50786820F4F6
:10168000E06078600020009078690090386840F051
:10169000010038600098386820F48060386078680D
:1016A000000540F1428105F0F7002646222840F06F
:1016B0001B8156F8380F0168496826F80E1C36F869
:1016C0000E1C19E1E06AB0F52A0F5DD1012060E03F
:1016D0007968720701F4006100F19680002940F0FA
:1016E0000982690605F0040140F1B08110F48060C0
:1016F00000F0AC81002940F0A981204601B0BDE88E
:10170000F04002F0C5B900BF002000907969009157
:10171000B9690091009984F83C0001B0F0BD00BFA8
:101720000EF0F701212940F08580290605F004021A
:1017300040F14C8110F4806000F04881002A40F0B4
:10174000458194F83D00618D002900F0D381616AE4
:1017500011F8012B3A616162618D01396185618DFA
:10176000002908BF292840F0C5817868282120F485
:101770008060786021202063204684F83D1001B00D
:10178000BDE8F04000F064BDE06AB0F12A4F01D13D
:101790000820E06294F83E0040280BD1206D616C77
:1017A000002801F0FE0018BF40F00100386101B0D0
:1017B000F0BD00BF2069B0F5804F69D194F83D00BD
:1017C000616C212801F0FE0118BF01313961606BA5
:1017D00008B1806A38B9A06B002800F08B81806A5C
:1017E000002800F08781786840F40060786001B0DC
:1017F000F0BD00BF0020009078690090B8690090AB
:10180000009801B0F0BD00BF002940F073812906A7
:1018100005F0040140F1268110F4806000F022817F
:10182000002940F01F81204601B0BDE8F04002F0E1
:101830000DBA00BF690605F0040240F1DB8010F428
:10184000806000F0D780002A40F0D48094F83D00FA
:10185000618D002900F04E813969626A1170616AF8
:1018600001316162618D01396185618D002908BF97
:101870002A2840F03F812068416821F4806141605E
:10188000222028212063204684F83D10D9E000BFA3
:10189000206D002800F0C080206D012840F02A81D2
:1018A000606C062101EAD010F130386101B0F0BD62
:1018B000618D61B1618D012940F0E480202818BF5D
:1018C000082840F01981386820F4806038600020D2
:1018D000009078690090B86900900098386840F4EA
:1018E0000070386058E100BF56F8340F016849684D
:1018F00026F80A1C36F80A1C19B1216C41F00401C3
:101900002164796821F400617960FFF73FFC0128C8
:101910000BD0306843F2F961C0F600014163FFF774
:10192000DFFB10B13068416B8847608D60B1206883
:101930004169490730D4416949063AD4608D18B1EC
:10194000206C40F004002064206C28B1204601B0D7
:10195000BDE8F04001F062BF2A2D07D100202063CE
:10196000282084F83D00204600F070FC94F83D00EB
:10197000282859D10020CFF6FF70E06200212020F6
:10198000216384F83D00204684F83E1001B0BDE894
:10199000F04000F0C7B900BF0069616A0870616A71
:1019A000206801316162618D0139618541694906B3
:1019B000C4D50069616A0870606A01306062608D38
:1019C00001386085608D0028BAD1BDE7002A18BFB4
:1019D000002B00F08F80608D002800F08B80606A03
:1019E00010F8011B39616062608D0138608501B0BB
:1019F000F0BD00BF002A18BF002B00F07B80608D77
:101A0000002877D03869616A0870606A01306062C6
:101A1000608D013860856DE0606C062101EAD010B0
:101A2000F030386101B0F0BD206B222818BF222DA4
:101A300060D100212020216384F83D00204684F8F5
:101A40003E1001B0BDE8F04000F000BCB1FA81F0FA
:101A5000400950EA0C004DD1204601B0BDE8F040ED
:101A600001F0A2BFB1FA81F0400950EA0C0041D167
:101A7000BEF1210F36D1204601B0BDE8F04002F0A2
:101A8000A3B800BF618D022914D1102858D80121B4
:101A900014228140C0F20102114251D0396841F450
:101AA000806139600021009179690091B9690091E4
:101AB000009954E0396841F480613960796809051A
:101AC00063D5421E1F2A5DD80121914048F2810250
:101AD000C8F20002114255D0786840F48050786016
:101AE00053E000BF402B05D1204601B0BDE8F040D7
:101AF00002F006B901B0F0BD10F5803F0CD1386896
:101B000020F480603860786800057FF5E0AE3868C2
:101B100020F48060386038E0122A02D101287FF476
:101B2000D2AE1028F3D8012101FA00F01421C0F23E
:101B300001010842EBD0386840F48060386024E04E
:101B4000396841F4006139600021009179690091A0
:101B5000B96900910099396821F480613960796828
:101B6000090519D5421E1F2A1AD80121914048F2B1
:101B70008102C8F20002114212D0786840F480500D
:101B8000786009E010F5803FA6D0002000907869C9
:101B90000090B869009000980020206501B0F0BD69
:101BA00010F5803FE9D0F7E77047000070B5B8B393
:101BB000044690F83D0028B9002084F83C002046F7
:101BC00000F0F6FA242084F83D002068016821F036
:101BD00001010160016841F400410160016821F4E4
:101BE0000041016000F0D2FC48F28041C0F21E01C9
:101BF00040F60013D4F804E088424FF00001C0F230
:101C00003D0348F2A16C4FF0000238BF0121984219
:101C1000C0F2010C38BF0122E64538BF0A460AB1BE
:101C2000012070BD4DF68361C4F21B31A0FB01128F
:101C30002168950C4B684FF4967623F03F0343EAF6
:101C40009243754344F6D3564B60C1F262060B6A69
:101C5000A5FB0656B50923F03F03E64538BF950CB2
:101C60006A1C1A430A62CA6948F2A0664CF6FF73FE
:101C7000C0F20106B64522EA03020BD801384FEA4A
:101C80004E03B0FBF3F001306FF31F30042898BF10
:101C900004201EE0A368013863B119230EFB03F38F
:101CA000B0FBF3F001306FF31F3078B100F58040E6
:101CB00008E000BF0EEB4E03B0FBF3F001306FF312
:101CC0001F3028B100F5004003E000BF012000E014
:101CD00001201043C8610868D4E9072320F0C00040
:101CE000104318430860886848F2FF3204F10C067C
:101CF00090434CCE18431043A5698860C86820F013
:101D0000FF0030432843C860086840F001000860C5
:101D100000202021206484F83D10206384F83E00D8
:101D200070BD000070470000704700007047000061
:101D30002DE9F04381B01F46164688460446FFF75A
:101D400053FB94F83D10202920D105462068816975
:101D5000890717D5FFF748FB401B1928F6D9002043
:101D60002021206384F83D1084F83E00216C022677
:101D700041F02001216484F83C00304601B0BDE808
:101D8000F08300BF94F83C10012905D102263046AB
:101D900001B0BDE8F08300BF012184F83C10016868
:101DA000C90703D1016841F001010160016821F414
:101DB00000610160212184F83D10102184F83E105B
:101DC0000021216466626785618D21850021CFF63F
:101DD000FF71E162E16A11F5803F18BF012919D155
:101DE000016841F4807101604169DDF82090C90704
:101DF00023D119F1010116D0B9F1000F46D000BF6F
:101E0000FFF7F2FA401B484542D820684169C907EC
:101E1000F6D012E00829E3D0216B1229E0D0E3E7E5
:101E20004169C90709D14169C90706D14169C90793
:101E300004BF41695FEAC171F2D02169B1F5804FF9
:101E400002D1FE2161E000BF062101EAD811F03184
:101E500001614169090757D4416919F1010201F48F
:101E600080612FD0002946D1B9F1000F00F04281E6
:101E7000FFF7BAFA401B484500F23E8120684169ED
:101E8000090741D441694905F2D534E0FFF7ACFABE
:101E900000202021206384F83D1084F83E00216C4E
:101EA000012641F020012164216884F83C00086883
:101EB000C00544BF4FF400702064304601B0BDE857
:101EC000F08300BFB9B9416909071DD441694905CB
:101ED00011D44169090717D4416949050BD44169F7
:101EE000090711D44169490505D4416909070BD493
:101EF00041694905E7D5016841F4007101606FF45B
:101F0000806141610420F8E0FF2101EA08010161DC
:101F1000416989073AD4416919F1010201F48061EC
:101F200012D051BBB9F1000F00F0E080FFF75CFA6E
:101F3000401B484500F2DC8020684169890725D4B0
:101F400041694905F2D518E0B9B9416989071DD43D
:101F50004169490511D44169890717D44169490587
:101F60000BD44169890711D44169490505D44169F8
:101F700089070BD441694905E7D5016841F400712F
:101F800001606FF4806141610420B6E00026009694
:101F900041690091816900910099218D002900F02B
:101FA000958009F10108014651F8142F120635D425
:101FB000B8F1000F16D0B9F1000F00F0AF8000BFEC
:101FC0000868400500F1B280FFF70EFA401B484553
:101FD00000F2A9802068014651F8142F1206EFD5AF
:101FE0001CE000BF0A68520500F1A0800A681206D2
:101FF00014D40A68520500F199800A6812060DD4BB
:102000000A68520500F192800A68120606D40A682E
:10201000520500F18B800A681206E3D5636A1946FF
:1020200011F8012B02616162618D01396185278D93
:102030000146A7F1010CA4F828C051F8142F52074B
:102040000DD55FEA0C420AD05A78A7F1020C026162
:102050009A1C6262628D013A6285A4F828C00A68FF
:1020600052072FD4B8F1000F14D0B9F1000F7BD074
:102070000868400500F18080FFF7B6F9401B48452D
:1020800077D82068014651F8142F5207F0D5B4F8DC
:1020900028C017E00A6852056ED40A68520711D4A6
:1020A0000A68520568D40A6852070BD40A685205B8
:1020B00062D40A68520705D40A6852055CD40A68DB
:1020C0005207E7D55FEA0C417FF46DAF016841F438
:1020D00000710160202084F83D0084F83E6084F89F
:1020E0003C60304601B0BDE8F08300BFFFF77CF9EB
:1020F000202002E0FFF778F9202000212022216330
:1021000084F83D2084F83E10226C012610432064A0
:1021100084F83C10304601B0BDE8F0830868400503
:1021200004D4FFF761F9202004E000BF6FF4806061
:102130000860042000212022216384F83D2084F8D7
:102140003E10226C1043206484F83C10206C04285C
:1021500025D120680126016841F4007101603046F4
:1021600001B0BDE8F08300BF0868400504D4FFF764
:102170003BF9202004E000BF6FF480600860042079
:1021800000212022216384F83D2084F83E10226C37
:102190001043206484F83C10206C0428D9D0012618
:1021A000304601B0BDE8F083704700007047000082
:1021B00010B586B0006845F20042C4F2000200216A
:1021C0009042049102D006B010BD00BF41F2180445
:1021D000C4F20204206802A940F0080020602068D0
:1021E00000F00800019001984FF440700290122016
:1021F00003900320059040F60040C4F20100FEF772
:10220000DDFF0420C4F201000168002241F0E0611A
:1022100041F0020101606068002140F4001060603C
:10222000606800F40010019001981F2000F092F8FF
:102230001F2000F07FF820200021002200F08AF803
:10224000202000F077F806B010BD000070470000B5
:102250007047000040F2000040F29021C2F20000FE
:10226000C2F2000100780A6810440860704700005C
:1022700080B542F20000C4F20200016841F0100192
:102280000160032000F092F80F2000F005F800F044
:1022900027F8002080BD000070B540F20006C2F2B1
:1022A000000640F208013278C2F200014FF47A735E
:1022B0000968B3FBF2F20446B1FBF2F1084600F004
:1022C00067FB0F2C4FF0010508D838B94FF0FF30ED
:1022D00021460022002500F03DF87460284670BDBC
:1022E00080B582B041F21800C4F2020001680022F9
:1022F00041F001010160016801F0010101910199C2
:10230000416841F0805141604068002100F08050F8
:1023100000900098052000F01DF8052000F00AF854
:102320000420C4F201000168022262F31A61016014
:1023300002B080BD002848BF704700F01F01012295
:1023400002FA01F14EF200124009CEF2000242F808
:102350002010704710B54EF60C5CCEF2000CDCF885
:102360000030C3F3022E8EF00704042C28BF04248F
:10237000BEF103034FF0FF3E0EFA04F438BF002312
:10238000A14399400EFA03F39A43114300F00F0260
:10239000043A624409010C3200F16043B0F1FF3F9E
:1023A000C8BF03F56442117010BD00004EF60C5119
:1023B000CEF200010A684FF6FF031A4060F30A22CA
:1023C00042F0806040F0FD70086070472DE9F043F6
:1023D00081B0002800F0858042F20008C4F20208B3
:1023E0000446D8F800000D4600F0070088420CD2E1
:1023F000D8F8000020F007002843C8F80000D8F8FB
:10240000000000F00700A8426BD1206841F20409E7
:102410008107C4F2020917D5410705D5D9F8001084
:1024200041F4E061C9F80010010705D5D9F80010A2
:1024300041F46051C9F80010D9F80010A26821F0E9
:10244000F0011143C9F80010C00741D1D8F80000CD
:1024500000F00700A8420CD9D8F8000020F00700CF
:102460002843C8F80000D8F8000000F00700A84290
:1024700037D12068410707D5D9F80010E26821F468
:10248000E0611143C9F80010000708D5D9F8000031
:10249000216920F4605040EAC100C9F80000D9F871
:1024A000002002F00C00082841F20020C0F27A005F
:1024B00050D145F2EE53C2F38341C0F60003595C9C
:1024C000D2033BD440F60010C0F23D00484341E047
:1024D000606802280AD001282AD159F8041C89030F
:1024E00008D4012001B0BDE8F08300BF59F8041CF6
:1024F0008901F6D5D9F8001021F003010843C9F885
:102500000000FEF771FF064641F28837D9F8000057
:10251000616800F00C00B0EB810F97D0FEF764FF0C
:10252000801BB842F2D9032001B0BDE8F08300BFA0
:1025300059F8041C8907D4D5DCE700BFD9F800207E
:1025400045F2D453C2F34042C0F600039A5C4843BC
:10255000B0FBF2F0D9F8001045F2D652C1F30311E6
:10256000C0F60002515C40F2080220FA01F140F28C
:102570000400C2F200000068C2F200021160FFF71E
:102580008BFE002001B0BDE8F083000040F208009F
:1025900041F20401C2F20000C4F2020100680968BD
:1025A00045F2E652C1F30221C0F60002515CC84078
:1025B0007047000040F2080041F20401C2F200003E
:1025C000C4F202010068096845F2E652C1F3C22173
:1025D000C0F60002515CC840704700002DE9F04190
:1025E00082B0002868D00446007841F20006C00797
:1025F000C4F2020625D0706800F00C0004281BD03D
:10260000706800F00C00082802D17068C00313D471
:102610006068002800F06881B0F5A02F00F07C8190
:10262000B0F5803F00F07C81306820F4803030606D
:10263000306820F4802076E13068800301D560683E
:10264000D0B32078800718D5706810F00C0F07D031
:10265000706800F00C0008286ED17068C0036BD45D
:102660003068800702D52069012825D1306861696A
:1026700020F0F80040EAC1003060207800071FD445
:102680002078400732D4E56995B1706800F00C00FD
:10269000082840F08F80012D0ED07068216A00F468
:1026A00080328A4208D1616A00F47010884203D1F6
:1026B000002002B0BDE8F081012002B0BDE8F08149
:1026C000A069002862D00020C4F242200121C0F895
:1026D0008014FEF789FE0546706A800700F18C8041
:1026E000FEF782FE401B0228F6D92AE1F06910F0BD
:1026F000805808D1F06940F08050F061F06900F036
:1027000080500090009847F20007C4F20007386834
:10271000C00529D4386840F480703860FEF764FE44
:10272000054600BF3868C0051ED4FEF75DFE401B9D
:102730006428F7D905E100BF2069002840F20000B5
:10274000C4F2422000F0828001210160FEF74CFEBD
:10275000054600BF306880073FF588AFFEF744FEAE
:10276000401B0228F6D9ECE0E068002800F08080E9
:10277000052800F09780012800F09880306A20F04A
:1027800001003062306A20F0040092E00020C4F2C0
:1027900042200021C0F88014FEF726FE054600BF47
:1027A000706A80077FF56CAFFEF71EFE401B0228A3
:1027B000F6D9C6E00027C4F2422700203866FEF7AB
:1027C00013FE022D05460BD13068800140F1BE801A
:1027D000FEF70AFE401B02284FF00300F4D968E719
:1027E000306880017FF564AFFEF7FEFD401B0228D4
:1027F0004FF00300F4D95CE740F20800C2F2000099
:10280000006844F6D351C1F26201A0FB0101480AFD
:10281000019000BF00BF0198411E002801913FF4C4
:102820002FAF00BF0198411E002801913FF428AF4F
:1028300000BF0198411E002801913FF421AF00BF65
:102840000198411E00280191E4D119E7002101609F
:10285000FEF7CAFD054600BF306880077FF50DAF63
:10286000FEF7C2FD401B02284FF00300F4D920E719
:10287000306A20F001003062306A20F004003062DB
:10288000FEF7B2FD054641F2883700BF306A800787
:1028900020D5FEF7A9FD401BB8424FF00300F5D943
:1028A00007E700BF306A40F004003062306A40F051
:1028B00001003062FEF798FD054641F2883700BFFF
:1028C000306A800706D4FEF78FFD401BB842F7D967
:1028D00037E000BFB8F1000F7FF4D5AEF06920F00B
:1028E0008050F061CFE600BF306820F48030306067
:1028F000306820F480203060FEF776FD054600BF8A
:10290000306880037FF59DAEFEF76EFD401B6428A6
:102910004FF00300F4D9CCE6306840F480203060FA
:10292000306840F480303060FEF75EFD054600BF41
:10293000306880033FF585AEFEF756FD401B6428E6
:10294000F6D9032002B0BDE8F08100BF206AB0F5DF
:10295000803F05D17168A26821F400311143716094
:102960007168626A21F47411104308437060012099
:102970003866FEF739FD0446306880013FF598AEB1
:10298000FEF732FD001B02284FF00300F4D990E659
:10299000411E0020B0EB116F1CBF012070474EF2AA
:1029A0001002CEF2000251604EF62351CEF2000129
:1029B000F0230B7007219060116070477047000092
:1029C000704700007047000010B590F83C20012AC5
:1029D0004FF0020233D080F83D200268D2F804E0C4
:1029E000D2F808C00C682EF07003234340F2FF7445
:1029F000C4F20004A24253600ADCB2F1804F13D04B
:102A000040F20043C4F200039A420DD011E000BF2F
:102A100042F60043C4F201039A4205D040F6000397
:102A2000C4F200039A4204D149682CF08003194390
:102A300091600121002280F83D1080F83C20104672
:102A400010BD0000002804BF0120704770B5044687
:102A500090F83D00002855D1002084F83C0043F256
:102A6000ED2043F2F121C0F60000C0F6000143F270
:102A7000F52242F6296CC0F60002C0F6000CC4F83C
:102A80008000C4F8841043F2092042F6256143F225
:102A9000F92342F6816543F20526C4F88820C4F87C
:102AA00090C0C0F60000C0F6000142F6C11204F169
:102AB000A00CC0F60003C0F60005C0F60006C0F684
:102AC00000028CE80700A16C42F62D6EC4F88C3031
:102AD000C4E9265642F6C51342F6BD16C0F6000EEE
:102AE000C0F60003C0F60006C4F894E0C4F8AC30A9
:102AF000C4F8B06021B942F6CD31C0F60001A1643E
:102B000020468847022084F83D00206840F2FF7389
:102B10000268C4F2000342F600419842C4F2010187
:102B200014DCB0F1804F19D040F20046C4F2000628
:102B3000B04213D0984217DCB0F1804F1CD040F265
:102B40000043C4F20003984216D019E0884205D031
:102B500040F60006C4F20006B042EBD1A66822F0AF
:102B6000700232439842E7DD884205D040F6000308
:102B7000C4F20003984203D1236922F440721A433D
:102B8000A66922F080026368E568324388420260E9
:102B9000C562836201D162690A630121416100203B
:102BA00084F8461084F83E1084F83F1084F84010F2
:102BB00084F8411084F8421084F8431084F84410DB
:102BC00084F8451084F83D1070BD000082B00068A4
:102BD00040F60001C4F20001884215D042F60041DF
:102BE000C4F2010188421CD141F21800C4F2020073
:102BF000016841F400610160006800F40060019028
:102C0000019802B0704700BF41F21800C4F2020000
:102C1000416841F004014160406800F00400009008
:102C2000009802B07047000090F83D1001291CBFC9
:102C300001207047022180F83D10006840F2FF71CA
:102C4000C4F20001884209DCB0F1804F12D040F29A
:102C50000041C4F2000188420CD012E042F600416B
:102C6000C4F20101884205D040F60001C4F200011F
:102C7000884206D1816801F00701062904BF0020BF
:102C80007047016841F001010160002070470000B9
:102C900080B590F83C20012A4FF0020200F0BF807E
:102CA00080F83D20D0F800C04FF67772DCF808308D
:102CB00023EA0202CCF808200B683F2B1CDD5F2BB7
:102CC00020DD602B50D0B3F5005F6DD0702B40F04D
:102CD000A080D1E901E3C968DCF8082043EA0E03CB
:102CE00022F47F4243EA01211143CCF80810DCF8BA
:102CF000081041F077018AE01F2B29DC63B3102B09
:102D00002AD086E0402B63D0502B40F08280D1F84F
:102D100004E0C968DCF82030DCF8202022F0010251
:102D2000CCF82020DCF8182022F0F00242EA011151
:102D300023F00A0242EA0E02CCF81810CCF8202048
:102D4000DCF8081041F0570121F020015FE000BFDE
:102D5000202B01D0302B5CD1DCF8081021F0700161
:102D6000194341F0070152E0D1F804E0C968DCF8EA
:102D7000203023F01003CCF82030DCF81830DCF8D9
:102D8000202023F4704322F0A00243EA013142EAFA
:102D90000E12CCF81810CCF82020DCF8081041F006
:102DA000670121F0100132E0D1E901E3C968DCF8E4
:102DB000082043EA0E0322F47F4243EA0121114333
:102DC000CCF80810DCF8081041F480411FE000BF87
:102DD000D1F804E0C968DCF82030DCF8202022F0CB
:102DE0000102CCF82020DCF8182022F0F00242EAA0
:102DF000011123F00A0242EA0E02CCF81810CCF8B6
:102E00002020DCF8081041F0470121F03001CCF817
:102E100008100121002280F83D1080F83C20104667
:102E200080BD000070470000704700007047000040
:102E300080B586B040F600010068C4F200010022AF
:102E40008842049202D006B080BD00BF41F2180053
:102E5000C4F20200026842F008020260006800F05A
:102E600008000190019880200290022003900590B4
:102E700001F5823002A9FEF7A1F906B080BD00007D
:102E8000704700002DE9F04390F83C30012B04BF5F
:102E90000220BDE8F0834FEAB202032A00F2E58087
:102EA000DFE802F0023A76B0036842F600461A6A9A
:102EB000C4F2010622F001021A621D6A1A465C6819
:102EC00052F818CFB3428E68D1F800E025F0020521
:102ED00045EA06050CD1CE68D1E9057824F44074A2
:102EE00025F00C0526F004063C43354344EA08046B
:102EF0002CF0730747EA0E075C609F614F68096911
:102F00005F631D629F6947F008079F619F6927F013
:102F100004079F61A6E000BF036842F600461A6AF4
:102F2000C4F2010622F010021A621D6A1A46D3F892
:102F300004C052F8184FB3428E68D1F800E025F073
:102F4000200545EA06150FD1CE68D1E905986FF046
:102F5000400707EA06162CF4406725F0C00547EA4B
:102F60008907354347EA880C24F4E64444EA0E27EF
:102F7000C3F804C09F614F6809699F631D629F6920
:102F800047F400679F619F6927F480679F6168E04D
:102F9000036842F600461A6AC4F2010622F48072FF
:102FA0001A621D6A1A46D3F804C052F81CEFB342E5
:102FB0008E680C6825F4007545EA06250FD1CE68A9
:102FC000D1E90598360240F2FF47BE432CF4405742
:102FD00025F4406547EA0917354347EA081C2EF0F7
:102FE00073072743C3F804C0DF614F680969DF63D3
:102FF0001D62DF6947F00807DF61DF6927F004071A
:10300000DF612FE0036842F600471A6AC4F2010745
:1030100022F480521A621A46D3F820C05D6852F832
:103020001C4FD1F800E08E68BB4204D14F6925F4F3
:10303000804545EA87152CF4005747EA063724F403
:10304000E64646EA0E265D60DE614E6809691E644A
:103050001F62DF6947F40067DF61DF6927F480677B
:10306000DF610902136819431160002180F83C10E8
:103070000846BDE8F0830000002804BF0120704727
:1030800070B5044690F83D00002855D1002084F822
:103090003C0043F2ED2043F2F121C0F60000C0F6FF
:1030A000000143F2F52242F6296CC0F60002C0F698
:1030B000000CC4F88000C4F8841043F2092042F6E2
:1030C000256143F2F92342F6816543F20526C4F8EF
:1030D0008820C4F890C0C0F60000C0F6000142F697
:1030E000C11204F1A00CC0F60003C0F60005C0F642
:1030F0000006C0F600028CE80700216E42F62D6E35
:10310000C4F88C30C4E9265642F6C51342F6BD1603
:10311000C0F6000EC0F60003C0F60006C4F894E046
:10312000C4F8AC30C4F8B06021B943F20121C0F654
:103130000001216620468847022084F83D0020686F
:1031400040F2FF730268C4F2000342F60041984265
:10315000C4F2010114DCB0F1804F19D040F20046F6
:10316000C4F20006B04213D0984217DCB0F1804F91
:103170001CD040F20043C4F20003984216D019E07C
:10318000884205D040F60006C4F20006B042EBD1FA
:10319000A66822F0700232439842E7DD884205D0EB
:1031A00040F60003C4F20003984203D1236922F4DD
:1031B00040721A43A66922F080026368E5683243D0
:1031C00088420260C562836201D162690A6301219B
:1031D0004161002084F8461084F83E1084F83F10C6
:1031E00084F8401084F8411084F8421084F84310A9
:1031F00084F8441084F8451084F83D1070BD000038
:1032000070470000704700007047000041B1082976
:1032100010D0042914BF00F1410200F13F020BE07D
:1032200090F83E20012A1CBF01207047022280F83E
:103230003E2013E000F140021278012A1CBF012059
:1032400070470222082907D0042914BF80F84120C2
:1032500080F83F2002E000BF80F84020006801F0C5
:103260001F010122036A8A4023EA02010162036A04
:1032700042F64441C4F201011A43A1F144039842C9
:1032800002620FD040F2FF71C4F20001884213DCE9
:10329000B0F1804F1CD040F20041C4F200018842DE
:1032A00016D01CE00A6842F400420A6040F2FF7146
:1032B000C4F200018842EBDD42F60041C4F2010194
:1032C000884205D040F60001C4F20001884206D1D0
:1032D000816801F00701062904BF002070470168DA
:1032E00041F00101016000207047000070470000BC
:1032F00070470000704700007047000070470000F2
:1033000070470000B0B582B0026805461068D36807
:10331000546900F02F01202903F0200106D129B1C2
:10332000284602B0BDE8B04000F058BD5FEA007C1E
:103330001EBF04F0010E03F4907414EB0E0455D17B
:10334000296B012905D110F0100118BF13F01001ED
:1033500036D1010622D513F080011FD095F83D002B
:10336000212841D1A868B0F5805F03D128690028E1
:1033700000F0F680286A411C296200785060E88CD1
:1033800001380104E8842FD1D06820F08000D0609B
:10339000D06840F04000D06002B0B0BD400623D5F8
:1033A00013F0400020D0D068202120F04000D060F1
:1033B000284685F83D1002B0BDE8B04000F08CB959
:1033C00000200190106801905068019001985069A8
:1033D000400613D4A88DE98DEB8D002B1CBF401A3D
:1033E0005FEA004140F0A48002B0B0BDC40718BF3E
:1033F00013F480732CD1430730D436E0A86B0168F6
:103400004B689CB2002CEFD0A98D8C42ECD2EB859E
:103410008369202B17D0D16821F48071D160516964
:1034200021F001015161516921F0400151612021D8
:1034300085F83E1000212963D16821F01001D16088
:10344000FDF72AFEA98DE88D081A81B2284682E090
:103450002B6C43F001032B64430706D5BEF1000F2C
:1034600003D02B6C43F002032B64830706D5BEF117
:10347000000F03D02B6C43F004032B64BCF1000F4E
:1034800006D551EA0E0303D02B6C43F008032B64DE
:103490002B6C002BA8D010F0200018BF002903D0FF
:1034A000284600F09BFC2A685069296C00F0400017
:1034B00001F0080140182DD0D06820F49070D06041
:1034C000506920F001005061286B012803D1D068B9
:1034D00020F01000D060202085F83E0000202863F6
:1034E000506940061ED5506920F040005061A86B1D
:1034F000C0B143F6D151C0F600014163FDF7F0FDC4
:1035000000283FF471AFA86B416B02B0BDE8B0403A
:10351000084700BF2846FFF7F3FE0020286402B0EA
:10352000B0BD00BF284602B0BDE8B040FFF7E8BE1E
:10353000D16821F49071D160516921F0010151618C
:10354000202185F83E1000212963D16821F0100365
:1035500081B22846D36002B0BDE8B040FFF7CEBECE
:10356000286A30F8021B6FF35F215160286206E77A
:10357000002804BF0120704710B5044690F83D00B4
:1035800028B9002084F83C00204600F05FF8242091
:1035900084F83D002068D4E90212C36823F4005384
:1035A000C360036923F440531A430261D4E904233E
:1035B0001143C268194341F20C639A431143C1603D
:1035C0004169A26921F44071114343F60002C4F23B
:1035D00001029042416103D0FEF7D8FF02E000BF34
:1035E000FEF7E8FF6268192148439100B0FBF1F053
:1035F00048F21F51C5F2EB11A0FB01235A096FF0ED
:10360000630302FB0300322303EB0010A0FB010164
:10361000F02303EA5113206803EB0212C1F34311B4
:1036200011448160016921F490410161416921F0F7
:103630002A014161C16841F40051C160002020218C
:10364000206484F83D1084F83E1010BD70B586B03B
:1036500040F60004C4F201040068A4F544410026C9
:103660008842049602D006B070BD00BF41F2180037
:10367000C4F20200416802AD41F40031416041688A
:1036800001F4003101910199016841F004010160E8
:103690000068294600F0040001900198042002907F
:1036A00002200390032005902046FDF787FD0820A7
:1036B000CDE90206204629460496FDF77FFD262027
:1036C00000210022FEF746FE2620FEF733FE06B05C
:1036D00070BD00007047000070470000FEE700006A
:1036E00040F2D400C2F20000FDF788BE40F2D400E0
:1036F000C2F20000FDF728BF10B581B00021009193
:10370000406A40F20801C2F2000190F83DC0096829
:103710004BF28952C908C1F2F842A1FB0212110A08
:10372000232251430091009911B30099013900916E
:103730000168096889051FD50099C9B10099013947
:10374000009101680968890516D5009981B1009931
:10375000013900910168096889050DD5009939B1D1
:10376000009901390091016809688905DBD403E0FB
:10377000016C41F020010164446B4FF0000E002CFD
:103780001CBF0021A162816B00291CBF00228A623C
:103790000268002C136823F480631360A0F82AE009
:1037A00018BFC4F834E000291CBF00234B63116824
:1037B00021F00101116090F83D1060290CD1202109
:1037C00080F83D10002180F83E10016401B0BDE892
:1037D0001040FDF70FBE00BF0CF02801282911D1C1
:1037E000116841F001011160116841F480611160BC
:1037F00000210163282180F83D1001B0BDE8104090
:10380000FEF7D2B9202180F83D10002180F83E104B
:1038100001B0BDE81040FEF7C7B9000010B504467E
:1038200090F83D1090F83E00B0F1100218BF012250
:10383000403818BF0120024208BF222934D001F0CD
:10384000280028283AD100202063282084F83D0051
:1038500020684168090542D5416821F40061416052
:10386000606B90F82110012958D1A06B43F2F961E7
:10387000C0F600014163FDF733FC002861D02068E9
:103880004169490606D50069616A0870616A206865
:1038900001316162016821F001010160202084F89A
:1038A0003D00A06B4BE000BF2068026822F400627C
:1038B00002604268120505D50CE000BF206842682E
:1038C000120507D4602905D0202184F83D1000217D
:1038D00084F83E100021216341680905BCD494F8A6
:1038E0003D10602950D1202184F83D100021216431
:1038F0004169490606D50069616A0870616A2068F5
:1039000001316162016821F0010101602046FDF78B
:1039100071FD206C000717D11BE000BF43F2F96175
:10392000C0F600014163FDF7DBFB50B12168606B1D
:103930000A6822F001020A60202184F83D10416BE0
:103940008847206C000704D02068416821F4E061BA
:10395000416094F83D00216C490758BF10BD2828EC
:1039600010D10020CFF6FF70E062002120202163FB
:1039700084F83D00204684F83E10BDE81040FEF774
:10398000D1B900BF10BD00BF4169490605D5006926
:10399000616A0870606A013060622046FEF704F9CF
:1039A000206C0007D0D1D4E7C16A428D042A07D128
:1039B0000168426A4B6823F480634B60096911E037
:1039C000428D032A16D102680229536823F48063CA
:1039D000536005D0042903D0116821F4806111607F
:1039E0001169426A1170416A01314162418D0139A8
:1039F00041857047428D022A12D101390F2919D809
:103A0000DFE801F0081218121818181818181818FA
:103A10001818180801680A6822F480620EE000BFD6
:103A20000168426ACAE700BF01680A6842F480621E
:103A300004E000BF01680A6842F400720A60096984
:103A4000426A1170416A02684B1C4362438D013B1C
:103A5000438512694A70416A026801314162418DB1
:103A600001394185516821F440715160202180F86D
:103A70003D1090F83E200021402A80F83E1003D1EE
:103A80000163FEF791BB00BF12210163FEF74CB941
:103A900081B090F83D10222972D1418D042913D3B1
:103AA0000168426A09691170416A01314162418DC0
:103AB00001394185418D032962D10068416821F4B3
:103AC000806141605CE000BFC26A022A58D00129CF
:103AD00056D80021009140F20801C2F200010968A5
:103AE0004BF28952C908C1F2F842A1FB0212110A35
:103AF00001EB8101009100990139009100990029A1
:103B000040D001680A6892051AD5009901390091E0
:103B10000099B9B301680A68920511D50099013975
:103B20000091009971B301680A68920508D500995F
:103B300001390091009929B301680A689205DAD425
:103B40000A6822F480620A604A6822F4E0624A60ED
:103B50000969426A1170416A01314162418D01393E
:103B60004185202180F83D1090F83E200021402A18
:103B700080F83E1022D1016301B0FEF715BB00BFF3
:103B800001B07047016C41F0200101640168426A94
:103B90004B6823F4E0634B6009691170416A01319D
:103BA0004162418D01394185202180F83D1000217D
:103BB00080F83E1001B0FDF7F7BF00BF122101638E
:103BC00001B0FEF7B1B80000C16A90F83D20212A8B
:103BD00018BF7047428D4AB1416A026811F8013B33
:103BE00013614162418D01394185704711F5803F74
:103BF00018BF082918D101684A6822F4E0624A60B7
:103C00000A6842F400720A6000212022016380F8F1
:103C10003D2090F83E2080F83E10402A08BFFEF775
:103C2000C5BAFEF783B800BF2029E4D001684A680E
:103C300022F4E0624A6011210163002180F83E1005
:103C4000202180F83D10FEF771B8000090F83D107B
:103C500090F83EC0C26A038D002B08BF212919D0FD
:103C6000212905D0BCF1400F08BF222900D07047A0
:103C7000418D69B390F83E10402908BF00F040B86C
:103C8000416A026811F8013B13614162418D0139BB
:103C90004185704712F5803F18BF082A1ED1016880
:103CA0004A6822F4E0624A600A6842F400720A60DC
:103CB00000212022016380F83D2090F83E2080F80A
:103CC0003E10402A08BFFEF771BAFEF72FB800BFBA
:103CD0000068416821F4806141607047202ADED08D
:103CE00001684A6822F4E0624A6011210163002100
:103CF00080F83E10202180F83D10FEF717B8000034
:103D000090F83D10026D5AB1026D012A14D101687C
:103D1000826CD2B20A61016D01310165704700BF4A
:103D2000C26C816C012A17D10268C9B21161016DA0
:103D300002310165704700BF026D022A18BF70474B
:103D4000222911D101680A6842F480720A60016D6B
:103D500001310165704700BF0268C1F3072111619D
:103D6000016D0131016512E0428D5AB1212909D15D
:103D7000416A026811F8013B13614162418D0139CA
:103D800041857047428D002A08BF212900D0704725
:103D900001684A6822F4E0624A600A6842F40072EC
:103DA0000A6000212022016380F83D2080F83E1047
:103DB000FEF7FCB9FEE70000FEE7000070470000D8
:103DC0007047000070470000FEF744BA70470000DB
:103DD000406A0021C185C184FFF792BA81B090F892
:103DE0003E10222920D18368B3F5805F08D1016994
:103DF000002941D000F128010A6803685B680AE0E5
:103E0000014651F8282F13B90369002BF5D0036838
:103E10005B6803F07F0313700A6801320A60C18D8A
:103E200001390A04C18501D001B070470168CA6830
:103E300022F02002CA60CA6822F48072CA604A690D
:103E400022F001024A61202280F83E20026B012A02
:103E50001CD100220263CB6823F01003CB600B68F7
:103E6000DB0605D500920A68009249680091009926
:103E7000818D01B0FFF742BA0168826A49686FF329
:103E80005F2122F8021B8262C9E700BF01B0FFF781
:103E900021BC000040F29000C2F20000FFF732BAED
:103EA000FEE700002DE9F04184B048F68C0040F2B6
:103EB000D404C0F60C00C2F2000402904FF0640873
:103EC00002AA20464F210423CDF80080FDF730FFE1
:103ED00042F62D164627C0F60D1603AD20464F219B
:103EE0002A4604230396CDF80080FDF721FF013F09
:103EF000F4D104B0BDE8F08170B582B03220FDF796
:103F000049F940F2D40443F63C06C2F20004C0F67C
:103F10000C06642501AA20464F2104230196009532
:103F2000FDF706FF0520FDF735F901AA20464F21D0
:103F3000042301960095FDF7FBFE0120FDF72AF909
:103F400001AA20464F21042301960095FDF7F0FEBB
:103F50000A20FDF71FF942F62C00C0F60C00019074
:103F600001AA20464F2104230095FDF7E1FE0A2017
:103F7000FDF710F942F62C00C8F68C00019001AA5A
:103F800020464F2104230095FDF7D2FE0120FDF7C6
:103F900001F940F60C00C8F68C00019001AA2046F9
:103FA0004F2104230095FDF7C3FE0120FDF7F2F831
:103FB00040F60C00C1F61C00019001AA20464F21DA
:103FC00004230095FDF7B4FE0120FDF7E3F801207E
:103FD000FDF7E0F840F60C00C6F66C00019001AA6F
:103FE00020464F2104230095FDF7A2FE0120FDF796
:103FF000D1F840F60C00CCF6CC00019001AA204686
:104000004F2104230095FDF793FE02B070BD000020
:10401000012805D0002808BF41F0800102E000BF60
:1040200041F0C00180B582B021F00F00090100F11C
:104030000C0208308DF8050001F10C008DF8060027
:1040400001F108008DF8070040F2D4008DF804203B
:104050004FF0640CC2F2000001AA4F210423CDF8F6
:1040600000C0FDF765FE02B080BD0000F0B583B072
:10407000017821B340F2D404461E6427C2F2000442
:1040800002AD00BF21F00F00090100F10D0209305F
:104090008DF8090001F10D008DF80A0001F1090009
:1040A0008DF808208DF80B0020464F212A46042366
:1040B0000097FDF73DFEB17801360029E2D103B04B
:1040C000F0BD000092B0FEF7D3F800240120CDE946
:1040D0000B44CDE9094406900A904FF4E0104FF4E8
:1040E000803102250F9006A8CDE90714CDE90D51C6
:1040F000FEF774FA20B1EFF3108072B6FEE700BF4E
:104100000F20CDE900054FF48060CDE90304684637
:1041100002210294FEF75AF920B1EFF3108072B633
:10412000FEE700BF002641F218000996C4F2020023
:10413000016840F6000441F0200101600168C4F20A
:10414000010401F02001009100990168002241F072
:104150000401016001684FF4007701F0040100914F
:104160000099016841F00801016000684FF4007196
:1041700000F00800009000982046FDF72FF94FF45A
:10418000807006ADCDE90606204629460896FDF763
:1041900015F80120CDE9070602200990204629469E
:1041A0000697FDF70BF840F2D400A4F53441C2F2B3
:1041B000000048F2A0624FF48043C0F2010280E8A0
:1041C0004600C0E90363C0E90566C0E90766FDF77C
:1041D000EDFC28B1EFF3108072B600BFFEE700BF20
:1041E00040F2700BC2F2000BA4F54441584640F86F
:1041F000201F4FF4E1310C22C0E90116C0E903662B
:10420000C0E90526C661FFF7B3F928B1EFF31080C6
:1042100072B600BFFEE700BF40F22810002104F58F
:104220001052C2F2000047234FF6FE770991CDE904
:104230000711CDE90011C0E90023C0E90217C0E968
:1042400004118161FEF7FEFB20B1EFF3108072B61E
:10425000FEE700BF4FF48050069040F22810C2F2F3
:10426000000006A9FEF714FD20B1EFF3108072B62E
:10427000FEE700BF40F22815C2F200056946284655
:10428000FEF7A2FB20B1EFF3108072B6FEE700BF8D
:1042900040F2DC100021A4F58032C2F200004FF49D
:1042A00034734FF47A770391CDE90111CDE9101100
:1042B000CDE90B11CDE90911C0E90023C0E90217CE
:1042C00001618161FEF7BEFB20B1EFF3108072B691
:1042D000FEE700BF4FF48050009040F2DC10C2F2C5
:1042E00000006946FEF7D4FC20B1EFF3108072B6EF
:1042F000FEE700BF40F2DC10C2F20000FEF7BCFE99
:1043000020B1EFF3108072B6FEE700BF40F2DC1080
:10431000C2F2000010A9FEF757FB18B1EFF31080AE
:1043200072B6FEE7602006904FF4FA700790002006
:1043300008900A9040F2DC10C2F2000006A90422A4
:10434000FEF7A0FD20B1EFF3108072B6FEE700BFCC
:1043500040F2DC16C2F200063046FEF769FD284640
:10436000FEF762FC20464FF400710022FDF736F89C
:1043700030460421FEF74AFFFFF7BEFD64A0FFF7B9
:1043800075FE41F28830FCF705FF40F200080BF1A2
:104390001006C4F24E080CE040F2DC10C2F200003D
:1043A0000068962181634FF47A70FCF7F3FEFFF703
:1043B00079FDFFF777FD00200021FFF729FE204659
:1043C0004FF400710122FDF709F8286800214162CD
:1043D000416A092908D8416A092905D8416A092989
:1043E00002D8416A0A29F3D320464FF40071002213
:1043F000FCF7F4FFFCF7F8FFCBF80C0020464FF475
:104400008071FCF7E5FF38B9DBF80C0000F10A0712
:10441000FCF7EAFF8742F1D82868406ACBF804002D
:10442000FCF7E2FFCBF80C0020464FF48071FCF75C
:10443000CFFF38B1DBF80C0000F13207FCF7D4FFF6
:104440008742F1D82868406ADBF80410CBF80800EE
:10445000401A00F006FE4CF29C4246F67203CBF284
:104460002002C3F6A17300F087FE00230022C3F6EA
:10447000E07300F081FE00F0C5FD0246ABF80000DD
:10448000304625A1FBF7B2FE3046FFF7EFFD304680
:1044900000F08EFC0022434681468A4600F0BCFFB5
:1044A00000283FF479AF484651460022434600F0C9
:1044B000ACFF78B90023484651460022C4F23E03BF
:1044C00000F0AAFF30B940F2DC10C2F20000006830
:1044D0005A2167E70023484651460022C4F23E03B2
:1044E00000F093FF40F2DC11C2F200010F6858B9EE
:1044F0000023484651460022C4F22E0300F08CFFF0
:1045000010B93C2001E000BF2820B8634BE700BF92
:1045100054455354545454002564000023F07F47FD
:1045200020F07F4C80EA030000F00040ACEB070372
:1045300003F57C5303F1FF032DE9804909B44FEAE9
:10454000144324EA03484FEA154B25EA0B4E0FF2B9
:10455000042606EB13273E7803FB0667C7F5000722
:1045600007FB06F64FEAD64606F102064FEA543735
:1045700007FB066CCCF1005C4FEA1C472CEA074CA9
:104580000CFB06F507FB06F404EB15464FEA9616FE
:1045900049085FEA320234BF00204FF000404FEA82
:1045A000D13706FB07FC4FEA1C4C0CFB0BF7D21B68
:1045B00003FB0CF761EB07010CFB0EF7B0EB0740B8
:1045C00072EB17420CFB08F734BFA2EB0742B2EBC9
:1045D000074261EB17414FEA0C444FEA910706FB93
:1045E00007FC4FEA1C4C0CFB0BF7B0EBC74072EB1F
:1045F000573203FB0CF734BFA2EBC742B2EBC74202
:1046000061EB57310CFB0EF7B0EBC70072EB577242
:104610000CFB08F734BFA2EBC702B2EBC70261EB99
:1046200057714FEA816141EA92114FEA826242EA90
:1046300090124FEA806004EBCC04039F4FEAD1371D
:1046400006FB07FC4FEA1C4C0CFB0BF7D21B03FBD1
:104650000CF761EB07010CFB0EF7B0EB074072EBB8
:1046600017420CFB08F734BFA2EB0742B2EB07423C
:1046700061EB17414FEA8C5504EB9C244FEA9107FC
:1046800006FB07FC4FEA1C4C0CFB0BF7B0EBC740DA
:1046900072EB573203FB0CF734BFA2EBC742B2EB0D
:1046A000C74261EB57310CFB0EF7B0EBC70072EB62
:1046B00057720CFB08F734BFA2EBC702B2EBC7027C
:1046C00061EB57714FEA816141EA92114FEA8262D0
:1046D00042EA90124FEA806015EB4C2544F1000449
:1046E0004FEAD13706FB07FC4FEA1C4C0CFB0BF7DB
:1046F000D21B03FB0CF761EB07010CFB0EF7B0EBD1
:10470000074072EB17420CFB08F734BFA2EB0742DD
:10471000B2EB074261EB17414FEA813141EA924126
:104720004FEA823242EA90424FEA80304FEA0C76FA
:1047300015EB1C1544F1000448EA03434EEA0B480C
:104740004FF0000EB2EB080C71EB030724BF62467A
:1047500039464EEB0E0E4FF0000B00185241494106
:104760004BEB0B0BB2EB080C71EB03077BF1000B6F
:1047700024BF624639464EEB0E0E4FF0000B001878
:10478000524149414BEB0B0BB2EB080C71EB0307A9
:104790007BF1000B24BF624639464EEB0E0E51EA08
:1047A000020718BF46F0010616EB0E7655F100021F
:1047B00054F1000103D5BDE88901BDE80088BDE8DA
:1047C0008901BDE80048B619524141EB0101A3F14E
:1047D0000103704780807F7E7D7C7B7A7978777655
:1047E00076757473727171706F6E6E6D6C6C6B6ACE
:1047F0006A6968686766666564646363626161606C
:10480000605F5F5E5E5D5D5C5C5B5B5A5A595958E8
:104810005857575656555555545453535252525152
:10482000515050504F4F4F4E4E4D4D4D4C4C4C4BA8
:104830004B4B4A4A4A4949494848484747474746EF
:10484000464645454544444444434343434242422B
:104850004241414110B546EA06464FEA164646EA4D
:1048600042564FEAD22242EA41524FEAD121A3F501
:104870007053A3F1010300F02FF820F0004000F086
:10488000004700F1020CBCF5006F01EB005011462F
:1048900040EA070000D210BDBAF1000F0AD01CB5E3
:1048A00003B44FF004004FF004014FF000000FBCC0
:1048B000BDE810404FF00001BBF1010FB9BF044843
:1048C0004FF0FF310348002140EA070010BD00BF50
:1048D000FFFFEF7F0000F07F9C46002B30D4770075
:1048E0002BD04FEA37071CB503B44FF010004FF040
:1048F0001001BAF1000F06D0BCF1000FDCBF40F090
:10490000080040F008014FF000000FBCBDE8104067
:104910000BF1010BBBF1010F08BF5FEA170722BFC4
:1049200012F1010211F101014FF0004143F10003C6
:1049300000F0004043EA00007047F9D35708D0E781
:1049400046EA06464FEA164613F1400F1FDD13F103
:10495000200FDFBF16430A46002120335B42BED042
:10496000C3F1200746EA06464FEA164602FA07F761
:1049700046EA070622FA03F2C3F1200701FA07F715
:1049800042EA070221FA03F14FF00003A7E746EAE3
:10499000020646EA06464FEA164646EA0106BCBF4C
:1049A00046EA0646360C4FF000034FF000024FF087
:1049B000000194E72DE9804C70B49A46934691E843
:1049C000380007C831EA400C48BF34EA430C03D52D
:1049D000FFF7A4FDFFF780FFF0BCBDE8008C2DE9D8
:1049E000804C70B49A46934691E8380007C831EA83
:1049F000400C48BF34EA430C03D5FFF78FFDFFF7A7
:104A000029FFF0BCBDE8008C2DE9804C70B49A46BB
:104A1000934691E8380007C810F0804F08BF13F0A4
:104A2000804F03D100F01AF8FFF756FFF0BCBDE845
:104A3000008C2DE9804C70B49A46934691E838007A
:104A400007C810F0804F08BF13F0804F03D100F06B
:104A500005F8FFF7FFFEF0BCBDE8008C20F07F47B3
:104A600023F07F4C80EA030000F0004007EB0C03CA
:104A7000A3F57C53A3F1FE0392F0000F00F0B38086
:104A800095F0000F00F077802DE901494FEA1140C1
:104A900021EA00484FEA144624EA064700FB06FCD8
:104AA00008FB06F607FB08F818EB06484CEB164C1B
:104AB00000FB07F718EB07484CEB17404FEA124B87
:104AC00022EA0B4E4FEA154625EA06470BFB06FC89
:104AD0000EFB06F607FB0EFE1EEB064E4CEB164CCD
:104AE0000BFB07F71EEB074E4CEB174B18EB0B08B5
:104AF00040F1000018EB0E0B58EB000840F10000ED
:104B00008F1A4FF000014FF000063CBFC943661BEF
:104B100014BFB5EB040C00213CBFC943F61B4FEAA0
:104B2000174427EA04454FEA1C472CEA074C04FBCC
:104B3000076205FB07F70CFB05F616EB074642EB91
:104B4000174204FB0CFC16EB0C4642EB1C421BEB21
:104B5000060658EB020241414EEA8E0E46EA9E06D8
:104B600001D5BDE80189B619524141EB0101A3F11C
:104B70000103BDE801894FEA144524EA05464FEADE
:104B8000114721EA074C05FB07F406FB07F70CFB6E
:104B900006F111EB074144EB174405FB0CFC11EB4C
:104BA0000C4144EB1C444FEA124722EA074C05FB38
:104BB00007F206FB07F70CFB06F616EB074642EB7F
:104BC000174205FB0CFC16EB0C4642EB1C456A1821
:104BD00054F1000148BF7047B619524141EB010141
:104BE000A3F10103704795F0000F37D04FEA11424F
:104BF00021EA02464FEA144724EA074C02FB07F178
:104C000006FB07F70CFB06F414EB074441EB1741D6
:104C100002FB0CFC14EB0C4441EB1C414FEA154722
:104C200025EA074C02FB07F506FB07F70CFB06F627
:104C300016EB074645EB174502FB0CFC16EB0C4642
:104C400045EB1C42121951F1000148BF7047B619DB
:104C5000524141EB0101A3F1010370474FEA1445B2
:104C600024EA05464FEA114721EA074C05FB07F104
:104C700006FB07F70CFB06F212EB074241EB17416C
:104C800005FB0CFC12EB0C4251EB1C414FF00006F3
:104C900048BF7047921841EB0101A3F1010370472F
:104CA00040F2013200204FF0E04100F0FDBB000077
:104CB000024A0020110700F0F7BB000001FDFFFFD2
:104CC00010B50446D1E9000100F002F8206010BDE3
:104CD000F8B504460D466A4600F080F800987E302C
:104CE000009000281EDC002213462046294600F0D2
:104CF0004DF917D0002140F608004FF0000006469D
:104D00002046294600F0FCF8044640F6080006EA72
:104D100000014FF0000034F0004004BF0220FBF718
:104D2000F1FA29E00098FF2828DB002108464FF01F
:104D3000000000F44006002213462046294600F0F9
:104D400019FB8CBF002501250220FBF7DBFA4FF091
:104D5000FF4446B1002D0CBF4FF400004FF480001B
:104D6000B04218BF084C042108464FF00000002D47
:104D700004BF84F00040F8BD2046F8BD2046294617
:104D8000BDE8F84000F0BCB8FFFF7F7F10B50446D7
:104D90000A46D4E90003194600F04CF8C4E90001C2
:104DA00010BD30380A2801D201207047002070471A
:104DB00030B583B00446FBF7A0FA05460020CDE9E4
:104DC00000000246012321466846FBF73BFB2846CC
:104DD000FBF798FADDE9000103B030BD10B51446C9
:104DE00000222260114A21F000439342A8BF10BD67
:104DF00053EA000208BF10BDB3F5801FA8BF2268A8
:104E000007DA362200F050FB6FF0350221F0004344
:104E10002260DFF81CC06FF31E510CEB23531A44C1
:104E200041F0FF5141F00051226010BD0000F07FC1
:104E300002FCFFFF2DE9F04106460C4640F2FF75EB
:104E4000174635EA14502BD000221346304600F0A6
:104E50009DF825D03A463046214600F025FB06460F
:104E60000C4635EA145010D000221346304600F0AC
:104E70008DF815D10220FBF745FAFFF719FF0A4616
:104E8000214662F31E01BDE8F0810220FBF73AFAE9
:104E9000FFF706FF0A46214662F31E01BDE8F081D6
:104EA00030462146BDE8F08110B500290AD00878C7
:104EB000002807D005487844FBF7E0FD002801D022
:104EC000002010BD0248784410BD00007A070000A1
:104ED0007207000010B500290AD00878002807D012
:104EE00005487844FBF7CAFD002801D0002010BD1A
:104EF0000248784410BD00006A0700006207000005
:104F000021F0004201F00043A2F16052B2F5801F8F
:104F100028BFD2F17F6C0BD95FEA001C43EAC202C2
:104F200042EB507018BF704728BF20F00100704757
:104F3000B2F5801FBCBF184670474FEA410C1CF504
:104F4000001F02D2084600F075BA70B500F0BEF935
:104F500000000089FFF7F6BF4FF00040A0F5800089
:104F60007047000002494FF0000000F06BBA00BF2C
:104F70000000F87F491058BFC1F140415B1058BF95
:104F8000C3F140438B42EFF30080704751EA030CBA
:104F900017D41CF5801F58BFBCF5801F00F1068098
:104FA000994218BF704708BF9042704707D711F564
:104FB000801F58BF13F5801F19D49942704789424A
:104FC00070471CF5801F08D5BCF5801FF7D58B42B4
:104FD00018BF704708BF824270474FF4001C1CEB9B
:104FE000410F38BF1CEB430F01D28B42704770B5A5
:104FF00000F06CF9922449004FF000514FF08053BB
:10500000FFF7B8BF4FEA41034FEA5353A3F580635C
:10501000D3F11E03C8BFD3F1210C0CDD4FF00042C9
:1050200042EAC12242EA505232FA03FC8CEAE17CA5
:10503000ACEBE1707047102BC4BF0020704703F544
:10504000787CBCF1FF3F04D06FF0004282EA21007F
:10505000704770B500F03AF94992248000207047FB
:10506000F2E7B0FA80F310FA03F10AD0C3F11D039E
:1050700003F580634FEA03524FEA415002EBD1211E
:1050800070474FF00000704751EA030C17D41CF52D
:10509000801F58BFBCF5801F00F10680994218BFE1
:1050A000704708BF9042704707D711F5801F58BF5F
:1050B00013F5801F19D499427047894270471CF537
:1050C000801F08D5BCF5801FF7D58B4218BF7047ED
:1050D00008BF824270474FF4001C1CEB410F38BFE1
:1050E0001CEB430F01D28B42704770B500F0EEF815
:1050F000922449004FF080514FF00053FFF73ABF20
:1051000051EA030C17D41CF5801F58BFBCF5801F53
:1051100000F10680994218BF704708BF904270475F
:1051200007D711F5801F58BF13F5801F19D4994276
:105130007047894270471CF5801F08D5BCF5801F59
:10514000F7D58B4218BF704708BF824270474FF4B3
:10515000001C1CEB410F38BF1CEB430F01D28B42EC
:10516000704770B500F0B2F8922449004FF000513A
:105170004FF08053FFF7FEBE70B5DFF848C11CEA60
:10518000111E1EBF1CEA13159EEA0C0F95EA0C0FA8
:1051900000F06F8081EA03044EEAD47EAE4421EA37
:1051A0004C1123EA4C1341F4801143F48013AEF107
:1051B0007F7EA1FB024CA0FB0365361955EB0C0565
:1051C000A1FB034C4CF10003A0FB021C16EB0C06E8
:1051D000654153F10003094218BF46F0010613F47C
:1051E000007F0BD14FEA03314FEA053041EA1551F8
:1051F00040EA165034036FF003020AE04FEAC3217D
:105200004FEAC52041EA555140EA5650F4026FF08A
:10521000020202EB2E4201EB025585EACE710AD062
:105220005FEA440C18BF24F0004450F1000041F143
:10523000000120EAD47040F2FE7C624500D270BDCD
:10524000A84214BF4FF080444FF04044002E08BFE6
:105250000024BEF1806FA8BFA1F1C041BDE870403D
:1052600080F2828001F1C04101F000414FF0000066
:1052700070470CEA13159EEA0C0F18BF95EA0C0F45
:1052800006D081EA030E4FF000000EF0004170BD21
:1052900000F01CF88900013E00F007B800F009B8E2
:1052A0004FEA430C5FEA5C5C08D081EA030100F03E
:1052B0005BB84FEA410C5FEA5C5CF6D102494FF003
:1052C000000070470000FF070000F87F0EF1020E9B
:1052D0002EF0030E5EF8046B364205D4012A43EB30
:1052E000030515F5001F12D8012841EB010C1CF530
:1052F000001F0CD80ED14FEAD17C0CEB4C0C0CF1FA
:10530000020C15F5001F08BF4CEBD37C04E04FF0F6
:10531000080C01E04FEAD37C0CEB4C0526FA05F6AD
:1053200006F00706B6F1040C06D20EEB860CBDE8BB
:1053300070404CF0010C6047DFE80CF0090B0202F2
:105340004FF00041A1F500214FF0000070BD19465B
:105350001046012851EB010418BFD4F5001484BF96
:10536000002001F0004170BD0808A0F500114FEACF
:105370003101704753EA010C17D41CF5801F58BF48
:10538000BCF5801F00F106808B4218BF704708BF34
:105390008242704707D713F5801F58BF11F5801F51
:1053A00019D48B4270479B4270471CF5801F08D56B
:1053B000BCF5801FF7D5994218BF704708BF9042CF
:1053C00070474FF4001C1CEB430F38BF1CEB410F20
:1053D00001D2994270470FB40CBC03BCFFF7C1BEA9
:1053E00010B5FFF7D3FD0CBF0120002010BD10B594
:1053F000FFF7CCFD14BF0120002010BD10B5FFF752
:1054000043FE8CBF0120002010BD10B5FFF73CFE0D
:105410002CBF0120002010BD10B5FFF771FE94BF16
:105420000120002010BD10B5FFF76AFE34BF012037
:10543000002010BDFF2141EAD050C00570474FF059
:10544000000070470CF00F03092B08BF082000F084
:105450005F800A2B0BD0082B18BF704708BF1CF0C9
:10546000400F0AD04FF000004FF0000170471CF0D1
:10547000400F18BF4FF0004070471CF0100F08D0CD
:1054800000F07F4220F0704342EAD3014FEA4370BC
:10549000704700F0604021F07F4242EA000201F0D4
:1054A0007F4040EA727070474FF0FF0C4CF4E06CA4
:1054B0001CEA11531CBF9CEA030C9445C2BFDA429C
:1054C00001EB02517047002B0DD0BCF1000F0FD043
:1054D00001F00041002AA4BF41F0E04141F07F61AA
:1054E0004FF00000704701F000414FF0000070479E
:1054F00050EA01334FF09B0C18BF4CF0806C7FF4E6
:1055000031AD7047FBF75AB9FBF782BBFBF710BD13
:105510001CF4801F11D01CF4E02F03D06FEACC31B3
:10552000490070474FF04050EFF3008222F0704284
:1055300042EA000282F3008870474FF00000704793
:1055400002400000000000A0000000000540000034
:10555000000000C8000000000C4000000000409C5B
:1055600000000000194000000020BCBE0000000048
:1055700034400000BFC91B8E00000004B54000008D
:10558000504BCFD06607E2CF010000006C41000015
:105590003E8251AADFEEA73401000000D94200008C
:1055A000DCB5A0E23A301F97FFFFFFFFB4450000D3
:1055B000FD25A0C8E9A3C14FFFFFFFFFFF3F00008B
:1055C0000000008000000000FF3F0000000000809D
:1055D00000000000010200000000000000000102C5
:1055E0000304060708090000000001020304020387
:1055F0000405060708090A0B0C0D0E0F1010000019
:10560000605700080000002010000000280100087A
:1056100070570008100000208808000044010008AE
:10562000000000000000F07FFFFFFFFFFFFFEF7FA3
:105630001C00000043000000F8FFFFFF0C0000000A
:105640000E0000000F0000002E00000010010000FE
:1056500043000000F8FFFFFF004040404040404052
:105660004040414141414140404040404040404035
:1056700040404040404040404005020202020202D9
:105680000202020202020202022020202020202028
:10569000202020020202020202029090909090903C
:1056A00010101010101010101010101010101010FA
:1056B000101010100202020202028888888888886E
:1056C000080808080808080808080808080808085A
:1056D0000808080802020202400000000000000062
:1056E00000000000000000000000000000000000BA
:1056F00000000000000000000000000000000000AA
:105700000000000000000000000000000000000099
:105710000000000000000000000000000000000089
:105720000000000000000000000000000000000079
:105730000000000000000000000000000000000069
:105740000000000000000000000000000000000059
:105750000000000000000000000000000000000049
:1057600001000000100000000024F4000000000010
:04000005080000ED02
:00000001FF
